{
  "contractName": "EthPolynomialCurvedToken",
  "abi": [
    {
      "constant": true,
      "inputs": [],
      "name": "name",
      "outputs": [
        {
          "name": "",
          "type": "string"
        }
      ],
      "payable": false,
      "stateMutability": "view",
      "type": "function"
    },
    {
      "constant": false,
      "inputs": [
        {
          "name": "_spender",
          "type": "address"
        },
        {
          "name": "_value",
          "type": "uint256"
        }
      ],
      "name": "approve",
      "outputs": [
        {
          "name": "",
          "type": "bool"
        }
      ],
      "payable": false,
      "stateMutability": "nonpayable",
      "type": "function"
    },
    {
      "constant": true,
      "inputs": [],
      "name": "totalSupply",
      "outputs": [
        {
          "name": "",
          "type": "uint256"
        }
      ],
      "payable": false,
      "stateMutability": "view",
      "type": "function"
    },
    {
      "constant": false,
      "inputs": [
        {
          "name": "_from",
          "type": "address"
        },
        {
          "name": "_to",
          "type": "address"
        },
        {
          "name": "_value",
          "type": "uint256"
        }
      ],
      "name": "transferFrom",
      "outputs": [
        {
          "name": "",
          "type": "bool"
        }
      ],
      "payable": false,
      "stateMutability": "nonpayable",
      "type": "function"
    },
    {
      "constant": true,
      "inputs": [],
      "name": "decimals",
      "outputs": [
        {
          "name": "",
          "type": "uint8"
        }
      ],
      "payable": false,
      "stateMutability": "view",
      "type": "function"
    },
    {
      "constant": false,
      "inputs": [
        {
          "name": "numTokens",
          "type": "uint256"
        }
      ],
      "name": "burn",
      "outputs": [],
      "payable": false,
      "stateMutability": "nonpayable",
      "type": "function"
    },
    {
      "constant": true,
      "inputs": [],
      "name": "exponent",
      "outputs": [
        {
          "name": "",
          "type": "uint8"
        }
      ],
      "payable": false,
      "stateMutability": "view",
      "type": "function"
    },
    {
      "constant": false,
      "inputs": [
        {
          "name": "_spender",
          "type": "address"
        },
        {
          "name": "_subtractedValue",
          "type": "uint256"
        }
      ],
      "name": "decreaseApproval",
      "outputs": [
        {
          "name": "",
          "type": "bool"
        }
      ],
      "payable": false,
      "stateMutability": "nonpayable",
      "type": "function"
    },
    {
      "constant": true,
      "inputs": [
        {
          "name": "_owner",
          "type": "address"
        }
      ],
      "name": "balanceOf",
      "outputs": [
        {
          "name": "",
          "type": "uint256"
        }
      ],
      "payable": false,
      "stateMutability": "view",
      "type": "function"
    },
    {
      "constant": true,
      "inputs": [],
      "name": "slope",
      "outputs": [
        {
          "name": "",
          "type": "uint32"
        }
      ],
      "payable": false,
      "stateMutability": "view",
      "type": "function"
    },
    {
      "constant": true,
      "inputs": [],
      "name": "symbol",
      "outputs": [
        {
          "name": "",
          "type": "string"
        }
      ],
      "payable": false,
      "stateMutability": "view",
      "type": "function"
    },
    {
      "constant": true,
      "inputs": [],
      "name": "poolBalance",
      "outputs": [
        {
          "name": "",
          "type": "uint256"
        }
      ],
      "payable": false,
      "stateMutability": "view",
      "type": "function"
    },
    {
      "constant": false,
      "inputs": [
        {
          "name": "numTokens",
          "type": "uint256"
        }
      ],
      "name": "mint",
      "outputs": [],
      "payable": true,
      "stateMutability": "payable",
      "type": "function"
    },
    {
      "constant": false,
      "inputs": [
        {
          "name": "_to",
          "type": "address"
        },
        {
          "name": "_value",
          "type": "uint256"
        }
      ],
      "name": "transfer",
      "outputs": [
        {
          "name": "",
          "type": "bool"
        }
      ],
      "payable": false,
      "stateMutability": "nonpayable",
      "type": "function"
    },
    {
      "constant": false,
      "inputs": [
        {
          "name": "_spender",
          "type": "address"
        },
        {
          "name": "_addedValue",
          "type": "uint256"
        }
      ],
      "name": "increaseApproval",
      "outputs": [
        {
          "name": "",
          "type": "bool"
        }
      ],
      "payable": false,
      "stateMutability": "nonpayable",
      "type": "function"
    },
    {
      "constant": true,
      "inputs": [
        {
          "name": "_owner",
          "type": "address"
        },
        {
          "name": "_spender",
          "type": "address"
        }
      ],
      "name": "allowance",
      "outputs": [
        {
          "name": "",
          "type": "uint256"
        }
      ],
      "payable": false,
      "stateMutability": "view",
      "type": "function"
    },
    {
      "anonymous": false,
      "inputs": [
        {
          "indexed": false,
          "name": "amount",
          "type": "uint256"
        },
        {
          "indexed": false,
          "name": "totalCost",
          "type": "uint256"
        }
      ],
      "name": "Minted",
      "type": "event"
    },
    {
      "anonymous": false,
      "inputs": [
        {
          "indexed": false,
          "name": "amount",
          "type": "uint256"
        },
        {
          "indexed": false,
          "name": "reward",
          "type": "uint256"
        }
      ],
      "name": "Burned",
      "type": "event"
    },
    {
      "anonymous": false,
      "inputs": [
        {
          "indexed": true,
          "name": "owner",
          "type": "address"
        },
        {
          "indexed": true,
          "name": "spender",
          "type": "address"
        },
        {
          "indexed": false,
          "name": "value",
          "type": "uint256"
        }
      ],
      "name": "Approval",
      "type": "event"
    },
    {
      "anonymous": false,
      "inputs": [
        {
          "indexed": true,
          "name": "from",
          "type": "address"
        },
        {
          "indexed": true,
          "name": "to",
          "type": "address"
        },
        {
          "indexed": false,
          "name": "value",
          "type": "uint256"
        }
      ],
      "name": "Transfer",
      "type": "event"
    },
    {
      "constant": false,
      "inputs": [
        {
          "name": "numTokens",
          "type": "uint256"
        }
      ],
      "name": "priceToMint",
      "outputs": [
        {
          "name": "",
          "type": "uint256"
        }
      ],
      "payable": false,
      "stateMutability": "nonpayable",
      "type": "function"
    },
    {
      "constant": false,
      "inputs": [
        {
          "name": "numTokens",
          "type": "uint256"
        }
      ],
      "name": "rewardForBurn",
      "outputs": [
        {
          "name": "",
          "type": "uint256"
        }
      ],
      "payable": false,
      "stateMutability": "nonpayable",
      "type": "function"
    }
  ],
  "bytecode": "0x60806040526040805190810160405280601281526020017f416368696c6c2d4172656e612d546f6b656e000000000000000000000000000081525060049080519060200190620000519291906200010e565b506040805190810160405280600381526020017f4143480000000000000000000000000000000000000000000000000000000000815250600590805190602001906200009f9291906200010e565b506002600660006101000a81548160ff021916908360ff1602179055506001600660016101000a81548163ffffffff021916908363ffffffff1602179055506012600660056101000a81548160ff021916908360ff1602179055503480156200010757600080fd5b50620001bd565b828054600181600116156101000203166002900490600052602060002090601f016020900481019282601f106200015157805160ff191683800117855562000182565b8280016001018555821562000182579182015b828111156200018157825182559160200191906001019062000164565b5b50905062000191919062000195565b5090565b620001ba91905b80821115620001b65760008160009055506001016200019c565b5090565b90565b61192780620001cd6000396000f3006080604052600436106100fc576000357c0100000000000000000000000000000000000000000000000000000000900463ffffffff16806306fdde0314610101578063095ea7b31461019157806318160ddd146101f657806323b872dd14610221578063313ce567146102a657806342966c68146102d757806352f6ee5814610304578063661884631461033557806370a082311461039a57806383caf275146103f157806395d89b411461042857806396365d44146104b8578063a0712d68146104e3578063a9059cbb14610503578063b9d3674314610568578063c544682b146105a9578063d73dd623146105ea578063dd62ed3e1461064f575b600080fd5b34801561010d57600080fd5b506101166106c6565b6040518080602001828103825283818151815260200191508051906020019080838360005b8381101561015657808201518184015260208101905061013b565b50505050905090810190601f1680156101835780820380516001836020036101000a031916815260200191505b509250505060405180910390f35b34801561019d57600080fd5b506101dc600480360381019080803573ffffffffffffffffffffffffffffffffffffffff16906020019092919080359060200190929190505050610764565b604051808215151515815260200191505060405180910390f35b34801561020257600080fd5b5061020b610856565b6040518082815260200191505060405180910390f35b34801561022d57600080fd5b5061028c600480360381019080803573ffffffffffffffffffffffffffffffffffffffff169060200190929190803573ffffffffffffffffffffffffffffffffffffffff16906020019092919080359060200190929190505050610860565b604051808215151515815260200191505060405180910390f35b3480156102b257600080fd5b506102bb610c1b565b604051808260ff1660ff16815260200191505060405180910390f35b3480156102e357600080fd5b5061030260048036038101908080359060200190929190505050610c2e565b005b34801561031057600080fd5b50610319610ddb565b604051808260ff1660ff16815260200191505060405180910390f35b34801561034157600080fd5b50610380600480360381019080803573ffffffffffffffffffffffffffffffffffffffff16906020019092919080359060200190929190505050610dee565b604051808215151515815260200191505060405180910390f35b3480156103a657600080fd5b506103db600480360381019080803573ffffffffffffffffffffffffffffffffffffffff169060200190929190505050611080565b6040518082815260200191505060405180910390f35b3480156103fd57600080fd5b506104066110c8565b604051808263ffffffff1663ffffffff16815260200191505060405180910390f35b34801561043457600080fd5b5061043d6110de565b6040518080602001828103825283818151815260200191508051906020019080838360005b8381101561047d578082015181840152602081019050610462565b50505050905090810190601f1680156104aa5780820380516001836020036101000a031916815260200191505b509250505060405180910390f35b3480156104c457600080fd5b506104cd61117c565b6040518082815260200191505060405180910390f35b61050160048036038101908080359060200190929190505050611182565b005b34801561050f57600080fd5b5061054e600480360381019080803573ffffffffffffffffffffffffffffffffffffffff169060200190929190803590602001909291905050506112fc565b604051808215151515815260200191505060405180910390f35b34801561057457600080fd5b506105936004803603810190808035906020019092919050505061151c565b6040518082815260200191505060405180910390f35b3480156105b557600080fd5b506105d460048036038101908080359060200190929190505050611556565b6040518082815260200191505060405180910390f35b3480156105f657600080fd5b50610635600480360381019080803573ffffffffffffffffffffffffffffffffffffffff16906020019092919080359060200190929190505050611590565b604051808215151515815260200191505060405180910390f35b34801561065b57600080fd5b506106b0600480360381019080803573ffffffffffffffffffffffffffffffffffffffff169060200190929190803573ffffffffffffffffffffffffffffffffffffffff16906020019092919050505061178c565b6040518082815260200191505060405180910390f35b60048054600181600116156101000203166002900480601f01602080910402602001604051908101604052809291908181526020018280546001816001161561010002031660029004801561075c5780601f106107315761010080835404028352916020019161075c565b820191906000526020600020905b81548152906001019060200180831161073f57829003601f168201915b505050505081565b600081600260003373ffffffffffffffffffffffffffffffffffffffff1673ffffffffffffffffffffffffffffffffffffffff16815260200190815260200160002060008573ffffffffffffffffffffffffffffffffffffffff1673ffffffffffffffffffffffffffffffffffffffff168152602001908152602001600020819055508273ffffffffffffffffffffffffffffffffffffffff163373ffffffffffffffffffffffffffffffffffffffff167f8c5be1e5ebec7d5bd14f71427d1e84f3dd0314c0f7b2291e5b200ac8c7c3b925846040518082815260200191505060405180910390a36001905092915050565b6000600154905090565b60008060008573ffffffffffffffffffffffffffffffffffffffff1673ffffffffffffffffffffffffffffffffffffffff1681526020019081526020016000205482111515156108af57600080fd5b600260008573ffffffffffffffffffffffffffffffffffffffff1673ffffffffffffffffffffffffffffffffffffffff16815260200190815260200160002060003373ffffffffffffffffffffffffffffffffffffffff1673ffffffffffffffffffffffffffffffffffffffff16815260200190815260200160002054821115151561093a57600080fd5b600073ffffffffffffffffffffffffffffffffffffffff168373ffffffffffffffffffffffffffffffffffffffff161415151561097657600080fd5b6109c7826000808773ffffffffffffffffffffffffffffffffffffffff1673ffffffffffffffffffffffffffffffffffffffff1681526020019081526020016000205461181390919063ffffffff16565b6000808673ffffffffffffffffffffffffffffffffffffffff1673ffffffffffffffffffffffffffffffffffffffff16815260200190815260200160002081905550610a5a826000808673ffffffffffffffffffffffffffffffffffffffff1673ffffffffffffffffffffffffffffffffffffffff1681526020019081526020016000205461182c90919063ffffffff16565b6000808573ffffffffffffffffffffffffffffffffffffffff1673ffffffffffffffffffffffffffffffffffffffff16815260200190815260200160002081905550610b2b82600260008773ffffffffffffffffffffffffffffffffffffffff1673ffffffffffffffffffffffffffffffffffffffff16815260200190815260200160002060003373ffffffffffffffffffffffffffffffffffffffff1673ffffffffffffffffffffffffffffffffffffffff1681526020019081526020016000205461181390919063ffffffff16565b600260008673ffffffffffffffffffffffffffffffffffffffff1673ffffffffffffffffffffffffffffffffffffffff16815260200190815260200160002060003373ffffffffffffffffffffffffffffffffffffffff1673ffffffffffffffffffffffffffffffffffffffff168152602001908152602001600020819055508273ffffffffffffffffffffffffffffffffffffffff168473ffffffffffffffffffffffffffffffffffffffff167fddf252ad1be2c89b69c2b068fc378daa952ba7f163c4a11628f55a4df523b3ef846040518082815260200191505060405180910390a3600190509392505050565b600660059054906101000a900460ff1681565b6000816000803373ffffffffffffffffffffffffffffffffffffffff1673ffffffffffffffffffffffffffffffffffffffff1681526020019081526020016000205410151515610c7d57600080fd5b610c8682611556565b9050610c9d8260015461181390919063ffffffff16565b600181905550610cf4826000803373ffffffffffffffffffffffffffffffffffffffff1673ffffffffffffffffffffffffffffffffffffffff1681526020019081526020016000205461181390919063ffffffff16565b6000803373ffffffffffffffffffffffffffffffffffffffff1673ffffffffffffffffffffffffffffffffffffffff16815260200190815260200160002081905550610d4b8160035461181390919063ffffffff16565b6003819055503373ffffffffffffffffffffffffffffffffffffffff166108fc829081150290604051600060405180830381858888f19350505050158015610d97573d6000803e3d6000fd5b507fcec1bae6e024d929f2929f3478ce70f55f9c636c8ef7b5073a61d7c3a432451b8282604051808381526020018281526020019250505060405180910390a15050565b600660009054906101000a900460ff1681565b600080600260003373ffffffffffffffffffffffffffffffffffffffff1673ffffffffffffffffffffffffffffffffffffffff16815260200190815260200160002060008573ffffffffffffffffffffffffffffffffffffffff1673ffffffffffffffffffffffffffffffffffffffff1681526020019081526020016000205490508083101515610f00576000600260003373ffffffffffffffffffffffffffffffffffffffff1673ffffffffffffffffffffffffffffffffffffffff16815260200190815260200160002060008673ffffffffffffffffffffffffffffffffffffffff1673ffffffffffffffffffffffffffffffffffffffff16815260200190815260200160002081905550610f94565b610f13838261181390919063ffffffff16565b600260003373ffffffffffffffffffffffffffffffffffffffff1673ffffffffffffffffffffffffffffffffffffffff16815260200190815260200160002060008673ffffffffffffffffffffffffffffffffffffffff1673ffffffffffffffffffffffffffffffffffffffff168152602001908152602001600020819055505b8373ffffffffffffffffffffffffffffffffffffffff163373ffffffffffffffffffffffffffffffffffffffff167f8c5be1e5ebec7d5bd14f71427d1e84f3dd0314c0f7b2291e5b200ac8c7c3b925600260003373ffffffffffffffffffffffffffffffffffffffff1673ffffffffffffffffffffffffffffffffffffffff16815260200190815260200160002060008873ffffffffffffffffffffffffffffffffffffffff1673ffffffffffffffffffffffffffffffffffffffff168152602001908152602001600020546040518082815260200191505060405180910390a3600191505092915050565b60008060008373ffffffffffffffffffffffffffffffffffffffff1673ffffffffffffffffffffffffffffffffffffffff168152602001908152602001600020549050919050565b600660019054906101000a900463ffffffff1681565b60058054600181600116156101000203166002900480601f0160208091040260200160405190810160405280929190818152602001828054600181600116156101000203166002900480156111745780601f1061114957610100808354040283529160200191611174565b820191906000526020600020905b81548152906001019060200180831161115757829003601f168201915b505050505081565b60035481565b600061118d8261151c565b905080341015151561119e57600080fd5b6111b38260015461182c90919063ffffffff16565b60018190555061120a826000803373ffffffffffffffffffffffffffffffffffffffff1673ffffffffffffffffffffffffffffffffffffffff1681526020019081526020016000205461182c90919063ffffffff16565b6000803373ffffffffffffffffffffffffffffffffffffffff1673ffffffffffffffffffffffffffffffffffffffff168152602001908152602001600020819055506112618160035461182c90919063ffffffff16565b600381905550803411156112b9573373ffffffffffffffffffffffffffffffffffffffff166108fc8234039081150290604051600060405180830381858888f193505050501580156112b7573d6000803e3d6000fd5b505b7f8a9dcf4e150b1153011b29fec302d5be0c13e84fa8f56ab78587f778a32a90dd8282604051808381526020018281526020019250505060405180910390a15050565b60008060003373ffffffffffffffffffffffffffffffffffffffff1673ffffffffffffffffffffffffffffffffffffffff16815260200190815260200160002054821115151561134b57600080fd5b600073ffffffffffffffffffffffffffffffffffffffff168373ffffffffffffffffffffffffffffffffffffffff161415151561138757600080fd5b6113d8826000803373ffffffffffffffffffffffffffffffffffffffff1673ffffffffffffffffffffffffffffffffffffffff1681526020019081526020016000205461181390919063ffffffff16565b6000803373ffffffffffffffffffffffffffffffffffffffff1673ffffffffffffffffffffffffffffffffffffffff1681526020019081526020016000208190555061146b826000808673ffffffffffffffffffffffffffffffffffffffff1673ffffffffffffffffffffffffffffffffffffffff1681526020019081526020016000205461182c90919063ffffffff16565b6000808573ffffffffffffffffffffffffffffffffffffffff1673ffffffffffffffffffffffffffffffffffffffff168152602001908152602001600020819055508273ffffffffffffffffffffffffffffffffffffffff163373ffffffffffffffffffffffffffffffffffffffff167fddf252ad1be2c89b69c2b068fc378daa952ba7f163c4a11628f55a4df523b3ef846040518082815260200191505060405180910390a36001905092915050565b600061154f60035461154161153c8560015461182c90919063ffffffff16565b611848565b61181390919063ffffffff16565b9050919050565b60006115896115786115738460015461181390919063ffffffff16565b611848565b60035461181390919063ffffffff16565b9050919050565b600061162182600260003373ffffffffffffffffffffffffffffffffffffffff1673ffffffffffffffffffffffffffffffffffffffff16815260200190815260200160002060008673ffffffffffffffffffffffffffffffffffffffff1673ffffffffffffffffffffffffffffffffffffffff1681526020019081526020016000205461182c90919063ffffffff16565b600260003373ffffffffffffffffffffffffffffffffffffffff1673ffffffffffffffffffffffffffffffffffffffff16815260200190815260200160002060008573ffffffffffffffffffffffffffffffffffffffff1673ffffffffffffffffffffffffffffffffffffffff168152602001908152602001600020819055508273ffffffffffffffffffffffffffffffffffffffff163373ffffffffffffffffffffffffffffffffffffffff167f8c5be1e5ebec7d5bd14f71427d1e84f3dd0314c0f7b2291e5b200ac8c7c3b925600260003373ffffffffffffffffffffffffffffffffffffffff1673ffffffffffffffffffffffffffffffffffffffff16815260200190815260200160002060008773ffffffffffffffffffffffffffffffffffffffff1673ffffffffffffffffffffffffffffffffffffffff168152602001908152602001600020546040518082815260200191505060405180910390a36001905092915050565b6000600260008473ffffffffffffffffffffffffffffffffffffffff1673ffffffffffffffffffffffffffffffffffffffff16815260200190815260200160002060008373ffffffffffffffffffffffffffffffffffffffff1673ffffffffffffffffffffffffffffffffffffffff16815260200190815260200160002054905092915050565b600082821115151561182157fe5b818303905092915050565b6000818301905082811015151561183f57fe5b80905092915050565b6000806001600660009054906101000a900460ff160160ff1690506118dd600660009054906101000a900460ff1660ff16600660059054906101000a900460ff1660ff1602600a0a6118cf600660019054906101000a900463ffffffff1663ffffffff166118c18586890a6118e590919063ffffffff16565b6118e590919063ffffffff16565b6118e590919063ffffffff16565b915050919050565b600081838115156118f257fe5b049050929150505600a165627a7a72305820c0f6d157f0269c1f2b3952ec36f03ceb3cb74584a9bb6d2cebf75a564036dc950029",
  "source": "/*pragma solidity ^0.4.23*/\n\nimport \"./EthBondingCurvedToken.sol\";\n\n\n/// @title  EthPolynomialCurvedToken - A polynomial bonding curve\n///         implementation that is backed by ether.\ncontract EthPolynomialCurvedToken is EthBondingCurvedToken {\n\n    // uint256 constant private PRECISION = 10000000000;\n    string public name = \"Achill-Arena-Token\";\n    string public symbol = \"ACH\";\n    uint8 public exponent = 2;\n    uint32 public slope = 1;\n    uint8 public decimals = 18;\n    // bool initalized = false;\n\n    // @dev constructor        Initializes the bonding curve\n    // constructor() public {\n    // }\n\n    // @dev initContract        Initializes the bonding curve\n    // need to make sure this function is only called once\n    // @param _name             The name of the token\n    // @param _decimals         The number of decimals to use\n    // @param _symbol           The symbol of the token\n    // @param _exponent         The exponent of the curve\n    // @param _hash             digest produced by hashing content using hash function\n    // @param _hashFunction     code for the hash function used\n    // @param _size             length of the digest\n    // function initContract(\n    //     string _name,\n    //     uint8 _decimals,\n    //     string _symbol,\n    //     uint8 _exponent,\n    //     uint32 _slope\n    // ) public payable {\n    //     require(!initalized);\n    //     // extra precautions\n    //     require(poolBalance == 0 && totalSupply_ == 0);\n    //     initalized = false;\n    //     name = _name;\n    //     decimals = _decimals;\n    //     symbol = _symbol;\n    //     exponent = _exponent;\n    //     slope = _slope;\n    // }\n\n    /// @dev        Calculate the integral from 0 to t\n    /// @param t    The number to integrate to\n    function curveIntegral(uint256 t) internal returns (uint256) {\n        uint256 nexp = exponent + 1;\n        return (t ** nexp).div(nexp).div(slope).div((10 ** (uint256(decimals) * uint256(exponent))));\n    }\n\n    function priceToMint(uint256 numTokens) public returns(uint256) {\n        return curveIntegral(totalSupply_.add(numTokens)).sub(poolBalance);\n    }\n\n    function rewardForBurn(uint256 numTokens) public returns(uint256) {\n        return poolBalance.sub(curveIntegral(totalSupply_.sub(numTokens)));\n    }\n}\n",
  "sourcePath": "/Users/Achill/Projects/truffle/arena/contracts/EthPolynomialCurvedToken.sol",
  "compiler": {
    "name": "solc",
    "version": "0.4.24+commit.e67f0147.Emscripten.clang"
  },
  "schemaVersion": "2.0.1",
  "updatedAt": "2018-10-03T12:51:29.381Z"
}