{
  "contractName": "Voting",
  "abi": [
    {
      "constant": true,
      "inputs": [
        {
          "name": "",
          "type": "uint256"
        }
      ],
      "name": "proposals",
      "outputs": [
        {
          "name": "id",
          "type": "uint256"
        },
        {
          "name": "text",
          "type": "string"
        },
        {
          "name": "voteCount",
          "type": "uint256"
        }
      ],
      "payable": false,
      "stateMutability": "view",
      "type": "function"
    },
    {
      "constant": true,
      "inputs": [],
      "name": "name",
      "outputs": [
        {
          "name": "",
          "type": "string"
        }
      ],
      "payable": false,
      "stateMutability": "view",
      "type": "function"
    },
    {
      "constant": false,
      "inputs": [
        {
          "name": "_spender",
          "type": "address"
        },
        {
          "name": "_value",
          "type": "uint256"
        }
      ],
      "name": "approve",
      "outputs": [
        {
          "name": "",
          "type": "bool"
        }
      ],
      "payable": false,
      "stateMutability": "nonpayable",
      "type": "function"
    },
    {
      "constant": true,
      "inputs": [
        {
          "name": "_of",
          "type": "address"
        },
        {
          "name": "_reason",
          "type": "bytes32"
        },
        {
          "name": "_time",
          "type": "uint256"
        }
      ],
      "name": "tokensLockedAtTime",
      "outputs": [
        {
          "name": "amount",
          "type": "uint256"
        }
      ],
      "payable": false,
      "stateMutability": "view",
      "type": "function"
    },
    {
      "constant": true,
      "inputs": [],
      "name": "totalSupply",
      "outputs": [
        {
          "name": "",
          "type": "uint256"
        }
      ],
      "payable": false,
      "stateMutability": "view",
      "type": "function"
    },
    {
      "constant": false,
      "inputs": [
        {
          "name": "_from",
          "type": "address"
        },
        {
          "name": "_to",
          "type": "address"
        },
        {
          "name": "_value",
          "type": "uint256"
        }
      ],
      "name": "transferFrom",
      "outputs": [
        {
          "name": "",
          "type": "bool"
        }
      ],
      "payable": false,
      "stateMutability": "nonpayable",
      "type": "function"
    },
    {
      "constant": false,
      "inputs": [
        {
          "name": "_reason",
          "type": "bytes32"
        },
        {
          "name": "_amount",
          "type": "uint256"
        },
        {
          "name": "_time",
          "type": "uint256"
        }
      ],
      "name": "lock",
      "outputs": [
        {
          "name": "",
          "type": "bool"
        }
      ],
      "payable": false,
      "stateMutability": "nonpayable",
      "type": "function"
    },
    {
      "constant": false,
      "inputs": [
        {
          "name": "_of",
          "type": "address"
        }
      ],
      "name": "unlock",
      "outputs": [
        {
          "name": "unlockableTokens",
          "type": "uint256"
        }
      ],
      "payable": false,
      "stateMutability": "nonpayable",
      "type": "function"
    },
    {
      "constant": true,
      "inputs": [],
      "name": "decimals",
      "outputs": [
        {
          "name": "",
          "type": "uint8"
        }
      ],
      "payable": false,
      "stateMutability": "view",
      "type": "function"
    },
    {
      "constant": false,
      "inputs": [
        {
          "name": "numTokens",
          "type": "uint256"
        }
      ],
      "name": "burn",
      "outputs": [],
      "payable": false,
      "stateMutability": "nonpayable",
      "type": "function"
    },
    {
      "constant": true,
      "inputs": [
        {
          "name": "_of",
          "type": "address"
        }
      ],
      "name": "totalBalanceOf",
      "outputs": [
        {
          "name": "amount",
          "type": "uint256"
        }
      ],
      "payable": false,
      "stateMutability": "view",
      "type": "function"
    },
    {
      "constant": false,
      "inputs": [
        {
          "name": "_to",
          "type": "address"
        },
        {
          "name": "_reason",
          "type": "bytes32"
        },
        {
          "name": "_amount",
          "type": "uint256"
        },
        {
          "name": "_time",
          "type": "uint256"
        }
      ],
      "name": "transferWithLock",
      "outputs": [
        {
          "name": "",
          "type": "bool"
        }
      ],
      "payable": false,
      "stateMutability": "nonpayable",
      "type": "function"
    },
    {
      "constant": true,
      "inputs": [
        {
          "name": "_of",
          "type": "address"
        },
        {
          "name": "_reason",
          "type": "bytes32"
        }
      ],
      "name": "tokensUnlockable",
      "outputs": [
        {
          "name": "amount",
          "type": "uint256"
        }
      ],
      "payable": false,
      "stateMutability": "view",
      "type": "function"
    },
    {
      "constant": true,
      "inputs": [],
      "name": "exponent",
      "outputs": [
        {
          "name": "",
          "type": "uint8"
        }
      ],
      "payable": false,
      "stateMutability": "view",
      "type": "function"
    },
    {
      "constant": true,
      "inputs": [
        {
          "name": "_of",
          "type": "address"
        },
        {
          "name": "_reason",
          "type": "bytes32"
        }
      ],
      "name": "tokensLocked",
      "outputs": [
        {
          "name": "amount",
          "type": "uint256"
        }
      ],
      "payable": false,
      "stateMutability": "view",
      "type": "function"
    },
    {
      "constant": false,
      "inputs": [
        {
          "name": "_spender",
          "type": "address"
        },
        {
          "name": "_subtractedValue",
          "type": "uint256"
        }
      ],
      "name": "decreaseApproval",
      "outputs": [
        {
          "name": "",
          "type": "bool"
        }
      ],
      "payable": false,
      "stateMutability": "nonpayable",
      "type": "function"
    },
    {
      "constant": true,
      "inputs": [
        {
          "name": "_owner",
          "type": "address"
        }
      ],
      "name": "balanceOf",
      "outputs": [
        {
          "name": "",
          "type": "uint256"
        }
      ],
      "payable": false,
      "stateMutability": "view",
      "type": "function"
    },
    {
      "constant": true,
      "inputs": [
        {
          "name": "",
          "type": "address"
        },
        {
          "name": "",
          "type": "uint256"
        }
      ],
      "name": "lockReason",
      "outputs": [
        {
          "name": "",
          "type": "bytes32"
        }
      ],
      "payable": false,
      "stateMutability": "view",
      "type": "function"
    },
    {
      "constant": false,
      "inputs": [
        {
          "name": "_reason",
          "type": "bytes32"
        },
        {
          "name": "_amount",
          "type": "uint256"
        }
      ],
      "name": "increaseLockAmount",
      "outputs": [
        {
          "name": "",
          "type": "bool"
        }
      ],
      "payable": false,
      "stateMutability": "nonpayable",
      "type": "function"
    },
    {
      "constant": true,
      "inputs": [],
      "name": "slope",
      "outputs": [
        {
          "name": "",
          "type": "uint32"
        }
      ],
      "payable": false,
      "stateMutability": "view",
      "type": "function"
    },
    {
      "constant": true,
      "inputs": [],
      "name": "symbol",
      "outputs": [
        {
          "name": "",
          "type": "string"
        }
      ],
      "payable": false,
      "stateMutability": "view",
      "type": "function"
    },
    {
      "constant": true,
      "inputs": [],
      "name": "poolBalance",
      "outputs": [
        {
          "name": "",
          "type": "uint256"
        }
      ],
      "payable": false,
      "stateMutability": "view",
      "type": "function"
    },
    {
      "constant": false,
      "inputs": [
        {
          "name": "numTokens",
          "type": "uint256"
        }
      ],
      "name": "mint",
      "outputs": [],
      "payable": true,
      "stateMutability": "payable",
      "type": "function"
    },
    {
      "constant": true,
      "inputs": [
        {
          "name": "",
          "type": "address"
        }
      ],
      "name": "voters",
      "outputs": [
        {
          "name": "",
          "type": "bool"
        }
      ],
      "payable": false,
      "stateMutability": "view",
      "type": "function"
    },
    {
      "constant": false,
      "inputs": [
        {
          "name": "_to",
          "type": "address"
        },
        {
          "name": "_value",
          "type": "uint256"
        }
      ],
      "name": "transfer",
      "outputs": [
        {
          "name": "",
          "type": "bool"
        }
      ],
      "payable": false,
      "stateMutability": "nonpayable",
      "type": "function"
    },
    {
      "constant": false,
      "inputs": [
        {
          "name": "_reason",
          "type": "bytes32"
        },
        {
          "name": "_time",
          "type": "uint256"
        }
      ],
      "name": "extendLock",
      "outputs": [
        {
          "name": "",
          "type": "bool"
        }
      ],
      "payable": false,
      "stateMutability": "nonpayable",
      "type": "function"
    },
    {
      "constant": true,
      "inputs": [
        {
          "name": "_of",
          "type": "address"
        }
      ],
      "name": "getUnlockableTokens",
      "outputs": [
        {
          "name": "unlockableTokens",
          "type": "uint256"
        }
      ],
      "payable": false,
      "stateMutability": "view",
      "type": "function"
    },
    {
      "constant": false,
      "inputs": [
        {
          "name": "numTokens",
          "type": "uint256"
        }
      ],
      "name": "priceToMint",
      "outputs": [
        {
          "name": "",
          "type": "uint256"
        }
      ],
      "payable": false,
      "stateMutability": "nonpayable",
      "type": "function"
    },
    {
      "constant": false,
      "inputs": [
        {
          "name": "numTokens",
          "type": "uint256"
        }
      ],
      "name": "rewardForBurn",
      "outputs": [
        {
          "name": "",
          "type": "uint256"
        }
      ],
      "payable": false,
      "stateMutability": "nonpayable",
      "type": "function"
    },
    {
      "constant": true,
      "inputs": [
        {
          "name": "",
          "type": "address"
        },
        {
          "name": "",
          "type": "bytes32"
        }
      ],
      "name": "locked",
      "outputs": [
        {
          "name": "amount",
          "type": "uint256"
        },
        {
          "name": "validity",
          "type": "uint256"
        },
        {
          "name": "claimed",
          "type": "bool"
        }
      ],
      "payable": false,
      "stateMutability": "view",
      "type": "function"
    },
    {
      "constant": false,
      "inputs": [
        {
          "name": "_spender",
          "type": "address"
        },
        {
          "name": "_addedValue",
          "type": "uint256"
        }
      ],
      "name": "increaseApproval",
      "outputs": [
        {
          "name": "",
          "type": "bool"
        }
      ],
      "payable": false,
      "stateMutability": "nonpayable",
      "type": "function"
    },
    {
      "constant": true,
      "inputs": [],
      "name": "proposalCount",
      "outputs": [
        {
          "name": "",
          "type": "uint256"
        }
      ],
      "payable": false,
      "stateMutability": "view",
      "type": "function"
    },
    {
      "constant": true,
      "inputs": [
        {
          "name": "_owner",
          "type": "address"
        },
        {
          "name": "_spender",
          "type": "address"
        }
      ],
      "name": "allowance",
      "outputs": [
        {
          "name": "",
          "type": "uint256"
        }
      ],
      "payable": false,
      "stateMutability": "view",
      "type": "function"
    },
    {
      "anonymous": false,
      "inputs": [
        {
          "indexed": true,
          "name": "_candidateId",
          "type": "uint256"
        }
      ],
      "name": "votedEvent",
      "type": "event"
    },
    {
      "anonymous": false,
      "inputs": [
        {
          "indexed": false,
          "name": "amount",
          "type": "uint256"
        },
        {
          "indexed": false,
          "name": "totalCost",
          "type": "uint256"
        }
      ],
      "name": "Minted",
      "type": "event"
    },
    {
      "anonymous": false,
      "inputs": [
        {
          "indexed": false,
          "name": "amount",
          "type": "uint256"
        },
        {
          "indexed": false,
          "name": "reward",
          "type": "uint256"
        }
      ],
      "name": "Burned",
      "type": "event"
    },
    {
      "anonymous": false,
      "inputs": [
        {
          "indexed": true,
          "name": "owner",
          "type": "address"
        },
        {
          "indexed": true,
          "name": "spender",
          "type": "address"
        },
        {
          "indexed": false,
          "name": "value",
          "type": "uint256"
        }
      ],
      "name": "Approval",
      "type": "event"
    },
    {
      "anonymous": false,
      "inputs": [
        {
          "indexed": true,
          "name": "from",
          "type": "address"
        },
        {
          "indexed": true,
          "name": "to",
          "type": "address"
        },
        {
          "indexed": false,
          "name": "value",
          "type": "uint256"
        }
      ],
      "name": "Transfer",
      "type": "event"
    },
    {
      "anonymous": false,
      "inputs": [
        {
          "indexed": true,
          "name": "_of",
          "type": "address"
        },
        {
          "indexed": true,
          "name": "_reason",
          "type": "bytes32"
        },
        {
          "indexed": false,
          "name": "_amount",
          "type": "uint256"
        },
        {
          "indexed": false,
          "name": "_validity",
          "type": "uint256"
        }
      ],
      "name": "Locked",
      "type": "event"
    },
    {
      "anonymous": false,
      "inputs": [
        {
          "indexed": true,
          "name": "_of",
          "type": "address"
        },
        {
          "indexed": true,
          "name": "_reason",
          "type": "bytes32"
        },
        {
          "indexed": false,
          "name": "_amount",
          "type": "uint256"
        }
      ],
      "name": "Unlocked",
      "type": "event"
    },
    {
      "constant": false,
      "inputs": [
        {
          "name": "_text",
          "type": "string"
        }
      ],
      "name": "addProposal",
      "outputs": [],
      "payable": false,
      "stateMutability": "nonpayable",
      "type": "function"
    },
    {
      "constant": false,
      "inputs": [
        {
          "name": "_proposalId",
          "type": "uint256"
        }
      ],
      "name": "vote",
      "outputs": [],
      "payable": false,
      "stateMutability": "nonpayable",
      "type": "function"
    }
  ],
  "bytecode": "0x60806040526040805190810160405280601281526020017f416368696c6c2d4172656e612d546f6b656e000000000000000000000000000081525060069080519060200190620000519291906200010e565b506040805190810160405280600381526020017f4143480000000000000000000000000000000000000000000000000000000000815250600790805190602001906200009f9291906200010e565b506002600860006101000a81548160ff021916908360ff1602179055506001600860016101000a81548163ffffffff021916908363ffffffff1602179055506012600860056101000a81548160ff021916908360ff1602179055503480156200010757600080fd5b50620001bd565b828054600181600116156101000203166002900490600052602060002090601f016020900481019282601f106200015157805160ff191683800117855562000182565b8280016001018555821562000182579182015b828111156200018157825182559160200191906001019062000164565b5b50905062000191919062000195565b5090565b620001ba91905b80821115620001b65760008160009055506001016200019c565b5090565b90565b6138fe80620001cd6000396000f3006080604052600436106101b7576000357c0100000000000000000000000000000000000000000000000000000000900463ffffffff1680630121b93f146101bc578063013cf08b146101e957806306fdde031461029d578063095ea7b31461032d578063179e91f11461039257806318160ddd1461040157806323b872dd1461042c5780632e82aaf2146104b15780632f6c493c1461050e5780632fdae3c514610565578063313ce567146105ce57806342966c68146105ff5780634b0ee02a1461062c5780634cb5465f146106835780635294d0e81461070057806352f6ee58146107655780635ca48d8c1461079657806366188463146107fb57806370a082311461086057806371d66f00146108b757806381fc4d901461092057806383caf2751461097357806395d89b41146109aa57806396365d4414610a3a578063a0712d6814610a65578063a3ec138d14610a85578063a9059cbb14610ae0578063a9dab16714610b45578063ab4a2eb314610b98578063b9d3674314610bef578063c544682b14610c30578063d71be8db14610c71578063d73dd62314610ce8578063da35c66414610d4d578063dd62ed3e14610d78575b600080fd5b3480156101c857600080fd5b506101e760048036038101908080359060200190929190505050610def565b005b3480156101f557600080fd5b5061021460048036038101908080359060200190929190505050610ecd565b6040518084815260200180602001838152602001828103825284818151815260200191508051906020019080838360005b83811015610260578082015181840152602081019050610245565b50505050905090810190601f16801561028d5780820380516001836020036101000a031916815260200191505b5094505050505060405180910390f35b3480156102a957600080fd5b506102b2610f8f565b6040518080602001828103825283818151815260200191508051906020019080838360005b838110156102f25780820151818401526020810190506102d7565b50505050905090810190601f16801561031f5780820380516001836020036101000a031916815260200191505b509250505060405180910390f35b34801561033957600080fd5b50610378600480360381019080803573ffffffffffffffffffffffffffffffffffffffff1690602001909291908035906020019092919050505061102d565b604051808215151515815260200191505060405180910390f35b34801561039e57600080fd5b506103eb600480360381019080803573ffffffffffffffffffffffffffffffffffffffff16906020019092919080356000191690602001909291908035906020019092919050505061111f565b6040518082815260200191505060405180910390f35b34801561040d57600080fd5b506104166111ea565b6040518082815260200191505060405180910390f35b34801561043857600080fd5b50610497600480360381019080803573ffffffffffffffffffffffffffffffffffffffff169060200190929190803573ffffffffffffffffffffffffffffffffffffffff169060200190929190803590602001909291905050506111f4565b604051808215151515815260200191505060405180910390f35b3480156104bd57600080fd5b506104f4600480360381019080803560001916906020019092919080359060200190929190803590602001909291905050506115b4565b604051808215151515815260200191505060405180910390f35b34801561051a57600080fd5b5061054f600480360381019080803573ffffffffffffffffffffffffffffffffffffffff16906020019092919050505061198f565b6040518082815260200191505060405180910390f35b34801561057157600080fd5b506105cc600480360381019080803590602001908201803590602001908080601f0160208091040260200160405190810160405280939291908181526020018383808284378201915050505050509192919290505050611cce565b005b3480156105da57600080fd5b506105e3611d4b565b604051808260ff1660ff16815260200191505060405180910390f35b34801561060b57600080fd5b5061062a60048036038101908080359060200190929190505050611d5e565b005b34801561063857600080fd5b5061066d600480360381019080803573ffffffffffffffffffffffffffffffffffffffff169060200190929190505050611f0e565b6040518082815260200191505060405180910390f35b34801561068f57600080fd5b506106e6600480360381019080803573ffffffffffffffffffffffffffffffffffffffff16906020019092919080356000191690602001909291908035906020019092919080359060200190929190505050611ff0565b604051808215151515815260200191505060405180910390f35b34801561070c57600080fd5b5061074f600480360381019080803573ffffffffffffffffffffffffffffffffffffffff16906020019092919080356000191690602001909291905050506123cc565b6040518082815260200191505060405180910390f35b34801561077157600080fd5b5061077a612509565b604051808260ff1660ff16815260200191505060405180910390f35b3480156107a257600080fd5b506107e5600480360381019080803573ffffffffffffffffffffffffffffffffffffffff169060200190929190803560001916906020019092919050505061251c565b6040518082815260200191505060405180910390f35b34801561080757600080fd5b50610846600480360381019080803573ffffffffffffffffffffffffffffffffffffffff169060200190929190803590602001909291905050506125f2565b604051808215151515815260200191505060405180910390f35b34801561086c57600080fd5b506108a1600480360381019080803573ffffffffffffffffffffffffffffffffffffffff169060200190929190505050612884565b6040518082815260200191505060405180910390f35b3480156108c357600080fd5b50610902600480360381019080803573ffffffffffffffffffffffffffffffffffffffff169060200190929190803590602001909291905050506128cd565b60405180826000191660001916815260200191505060405180910390f35b34801561092c57600080fd5b506109596004803603810190808035600019169060200190929190803590602001909291905050506128fd565b604051808215151515815260200191505060405180910390f35b34801561097f57600080fd5b50610988612bdd565b604051808263ffffffff1663ffffffff16815260200191505060405180910390f35b3480156109b657600080fd5b506109bf612bf3565b6040518080602001828103825283818151815260200191508051906020019080838360005b838110156109ff5780820151818401526020810190506109e4565b50505050905090810190601f168015610a2c5780820380516001836020036101000a031916815260200191505b509250505060405180910390f35b348015610a4657600080fd5b50610a4f612c91565b6040518082815260200191505060405180910390f35b610a8360048036038101908080359060200190929190505050612c97565b005b348015610a9157600080fd5b50610ac6600480360381019080803573ffffffffffffffffffffffffffffffffffffffff169060200190929190505050612e13565b604051808215151515815260200191505060405180910390f35b348015610aec57600080fd5b50610b2b600480360381019080803573ffffffffffffffffffffffffffffffffffffffff16906020019092919080359060200190929190505050612e33565b604051808215151515815260200191505060405180910390f35b348015610b5157600080fd5b50610b7e600480360381019080803560001916906020019092919080359060200190929190505050613058565b604051808215151515815260200191505060405180910390f35b348015610ba457600080fd5b50610bd9600480360381019080803573ffffffffffffffffffffffffffffffffffffffff16906020019092919050505061332d565b6040518082815260200191505060405180910390f35b348015610bfb57600080fd5b50610c1a60048036038101908080359060200190929190505050613404565b6040518082815260200191505060405180910390f35b348015610c3c57600080fd5b50610c5b6004803603810190808035906020019092919050505061343e565b6040518082815260200191505060405180910390f35b348015610c7d57600080fd5b50610cc0600480360381019080803573ffffffffffffffffffffffffffffffffffffffff1690602001909291908035600019169060200190929190505050613478565b6040518084815260200183815260200182151515158152602001935050505060405180910390f35b348015610cf457600080fd5b50610d33600480360381019080803573ffffffffffffffffffffffffffffffffffffffff169060200190929190803590602001909291905050506134bc565b604051808215151515815260200191505060405180910390f35b348015610d5957600080fd5b50610d626136b8565b6040518082815260200191505060405180910390f35b348015610d8457600080fd5b50610dd9600480360381019080803573ffffffffffffffffffffffffffffffffffffffff169060200190929190803573ffffffffffffffffffffffffffffffffffffffff1690602001909291905050506136be565b6040518082815260200191505060405180910390f35b6001600960003373ffffffffffffffffffffffffffffffffffffffff1673ffffffffffffffffffffffffffffffffffffffff16815260200190815260200160002060006101000a81548160ff021916908315150217905550610e5033612884565b600a60008381526020019081526020016000206002015401600a600083815260200190815260200160002060020181905550610e9c62123456600102610e9533612884565b60646115b4565b50807ffff3c900d938d21d0990d786e819f29b8d05c1ef587b462b939609625b684b1660405160405180910390a250565b600a602052806000526040600020600091509050806000015490806001018054600181600116156101000203166002900480601f016020809104026020016040519081016040528092919081815260200182805460018160011615610100020316600290048015610f7f5780601f10610f5457610100808354040283529160200191610f7f565b820191906000526020600020905b815481529060010190602001808311610f6257829003601f168201915b5050505050908060020154905083565b60068054600181600116156101000203166002900480601f0160208091040260200160405190810160405280929190818152602001828054600181600116156101000203166002900480156110255780601f10610ffa57610100808354040283529160200191611025565b820191906000526020600020905b81548152906001019060200180831161100857829003601f168201915b505050505081565b600081600460003373ffffffffffffffffffffffffffffffffffffffff1673ffffffffffffffffffffffffffffffffffffffff16815260200190815260200160002060008573ffffffffffffffffffffffffffffffffffffffff1673ffffffffffffffffffffffffffffffffffffffff168152602001908152602001600020819055508273ffffffffffffffffffffffffffffffffffffffff163373ffffffffffffffffffffffffffffffffffffffff167f8c5be1e5ebec7d5bd14f71427d1e84f3dd0314c0f7b2291e5b200ac8c7c3b925846040518082815260200191505060405180910390a36001905092915050565b600081600160008673ffffffffffffffffffffffffffffffffffffffff1673ffffffffffffffffffffffffffffffffffffffff168152602001908152602001600020600085600019166000191681526020019081526020016000206001015411156111e357600160008573ffffffffffffffffffffffffffffffffffffffff1673ffffffffffffffffffffffffffffffffffffffff168152602001908152602001600020600084600019166000191681526020019081526020016000206000015490505b9392505050565b6000600354905090565b6000600260008573ffffffffffffffffffffffffffffffffffffffff1673ffffffffffffffffffffffffffffffffffffffff16815260200190815260200160002054821115151561124457600080fd5b600460008573ffffffffffffffffffffffffffffffffffffffff1673ffffffffffffffffffffffffffffffffffffffff16815260200190815260200160002060003373ffffffffffffffffffffffffffffffffffffffff1673ffffffffffffffffffffffffffffffffffffffff1681526020019081526020016000205482111515156112cf57600080fd5b600073ffffffffffffffffffffffffffffffffffffffff168373ffffffffffffffffffffffffffffffffffffffff161415151561130b57600080fd5b61135d82600260008773ffffffffffffffffffffffffffffffffffffffff1673ffffffffffffffffffffffffffffffffffffffff1681526020019081526020016000205461374590919063ffffffff16565b600260008673ffffffffffffffffffffffffffffffffffffffff1673ffffffffffffffffffffffffffffffffffffffff168152602001908152602001600020819055506113f282600260008673ffffffffffffffffffffffffffffffffffffffff1673ffffffffffffffffffffffffffffffffffffffff1681526020019081526020016000205461375e90919063ffffffff16565b600260008573ffffffffffffffffffffffffffffffffffffffff1673ffffffffffffffffffffffffffffffffffffffff168152602001908152602001600020819055506114c482600460008773ffffffffffffffffffffffffffffffffffffffff1673ffffffffffffffffffffffffffffffffffffffff16815260200190815260200160002060003373ffffffffffffffffffffffffffffffffffffffff1673ffffffffffffffffffffffffffffffffffffffff1681526020019081526020016000205461374590919063ffffffff16565b600460008673ffffffffffffffffffffffffffffffffffffffff1673ffffffffffffffffffffffffffffffffffffffff16815260200190815260200160002060003373ffffffffffffffffffffffffffffffffffffffff1673ffffffffffffffffffffffffffffffffffffffff168152602001908152602001600020819055508273ffffffffffffffffffffffffffffffffffffffff168473ffffffffffffffffffffffffffffffffffffffff167fddf252ad1be2c89b69c2b068fc378daa952ba7f163c4a11628f55a4df523b3ef846040518082815260200191505060405180910390a3600190509392505050565b6000806115ca834261375e90919063ffffffff16565b905060006115d8338761251c565b146040805190810160405280601581526020017f546f6b656e7320616c7265616479206c6f636b656400000000000000000000008152509015156116b7576040517f08c379a00000000000000000000000000000000000000000000000000000000081526004018080602001828103825283818151815260200191508051906020019080838360005b8381101561167c578082015181840152602081019050611661565b50505050905090810190601f1680156116a95780820380516001836020036101000a031916815260200191505b509250505060405180910390fd5b5060008414156040805190810160405280601381526020017f416d6f756e742063616e206e6f7420626520300000000000000000000000000081525090151561179b576040517f08c379a00000000000000000000000000000000000000000000000000000000081526004018080602001828103825283818151815260200191508051906020019080838360005b83811015611760578082015181840152602081019050611745565b50505050905090810190601f16801561178d5780820380516001836020036101000a031916815260200191505b509250505060405180910390fd5b506000600160003373ffffffffffffffffffffffffffffffffffffffff1673ffffffffffffffffffffffffffffffffffffffff1681526020019081526020016000206000876000191660001916815260200190815260200160002060000154141561186f576000803373ffffffffffffffffffffffffffffffffffffffff1673ffffffffffffffffffffffffffffffffffffffff1681526020019081526020016000208590806001815401808255809150509060018203906000526020600020016000909192909190915090600019169055505b6118793085612e33565b5060606040519081016040528085815260200182815260200160001515815250600160003373ffffffffffffffffffffffffffffffffffffffff1673ffffffffffffffffffffffffffffffffffffffff16815260200190815260200160002060008760001916600019168152602001908152602001600020600082015181600001556020820151816001015560408201518160020160006101000a81548160ff02191690831515021790555090505084600019163373ffffffffffffffffffffffffffffffffffffffff167fea90ef40963535482537f0689e05cb8d259e459ebd21530e826702294d0eafdd8684604051808381526020018281526020019250505060405180910390a360019150509392505050565b60008060008090505b6000808573ffffffffffffffffffffffffffffffffffffffff1673ffffffffffffffffffffffffffffffffffffffff16815260200190815260200160002080549050811015611bde57611a40846000808773ffffffffffffffffffffffffffffffffffffffff1673ffffffffffffffffffffffffffffffffffffffff16815260200190815260200160002083815481101515611a3057fe5b90600052602060002001546123cc565b91506000821115611bd157611a5e828461375e90919063ffffffff16565b925060018060008673ffffffffffffffffffffffffffffffffffffffff1673ffffffffffffffffffffffffffffffffffffffff16815260200190815260200160002060008060008873ffffffffffffffffffffffffffffffffffffffff1673ffffffffffffffffffffffffffffffffffffffff16815260200190815260200160002084815481101515611aed57fe5b90600052602060002001546000191660001916815260200190815260200160002060020160006101000a81548160ff0219169083151502179055506000808573ffffffffffffffffffffffffffffffffffffffff1673ffffffffffffffffffffffffffffffffffffffff16815260200190815260200160002081815481101515611b7357fe5b9060005260206000200154600019168473ffffffffffffffffffffffffffffffffffffffff167f11f87fd5adcd05786919b8b868f59a70d78ae4eb6f305c5927f9c5b1659841a4846040518082815260200191505060405180910390a35b8080600101915050611998565b6000831115611cc7573073ffffffffffffffffffffffffffffffffffffffff1663a9059cbb85856040518363ffffffff167c0100000000000000000000000000000000000000000000000000000000028152600401808373ffffffffffffffffffffffffffffffffffffffff1673ffffffffffffffffffffffffffffffffffffffff16815260200182815260200192505050602060405180830381600087803b158015611c8a57600080fd5b505af1158015611c9e573d6000803e3d6000fd5b505050506040513d6020811015611cb457600080fd5b8101908080519060200190929190505050505b5050919050565b600b60008154809291906001019190505550606060405190810160405280600b5481526020018281526020016000815250600a6000600b548152602001908152602001600020600082015181600001556020820151816001019080519060200190611d3a92919061382d565b506040820151816002015590505050565b600860059054906101000a900460ff1681565b600081600260003373ffffffffffffffffffffffffffffffffffffffff1673ffffffffffffffffffffffffffffffffffffffff1681526020019081526020016000205410151515611dae57600080fd5b611db78261343e565b9050611dce8260035461374590919063ffffffff16565b600381905550611e2682600260003373ffffffffffffffffffffffffffffffffffffffff1673ffffffffffffffffffffffffffffffffffffffff1681526020019081526020016000205461374590919063ffffffff16565b600260003373ffffffffffffffffffffffffffffffffffffffff1673ffffffffffffffffffffffffffffffffffffffff16815260200190815260200160002081905550611e7e8160055461374590919063ffffffff16565b6005819055503373ffffffffffffffffffffffffffffffffffffffff166108fc829081150290604051600060405180830381858888f19350505050158015611eca573d6000803e3d6000fd5b507fcec1bae6e024d929f2929f3478ce70f55f9c636c8ef7b5073a61d7c3a432451b8282604051808381526020018281526020019250505060405180910390a15050565b600080611f1a83612884565b9150600090505b6000808473ffffffffffffffffffffffffffffffffffffffff1673ffffffffffffffffffffffffffffffffffffffff16815260200190815260200160002080549050811015611fea57611fdb611fcc846000808773ffffffffffffffffffffffffffffffffffffffff1673ffffffffffffffffffffffffffffffffffffffff16815260200190815260200160002084815481101515611fbc57fe5b906000526020600020015461251c565b8361375e90919063ffffffff16565b91508080600101915050611f21565b50919050565b600080612006834261375e90919063ffffffff16565b90506000612014878761251c565b146040805190810160405280601581526020017f546f6b656e7320616c7265616479206c6f636b656400000000000000000000008152509015156120f3576040517f08c379a00000000000000000000000000000000000000000000000000000000081526004018080602001828103825283818151815260200191508051906020019080838360005b838110156120b857808201518184015260208101905061209d565b50505050905090810190601f1680156120e55780820380516001836020036101000a031916815260200191505b509250505060405180910390fd5b5060008414156040805190810160405280601381526020017f416d6f756e742063616e206e6f742062652030000000000000000000000000008152509015156121d7576040517f08c379a00000000000000000000000000000000000000000000000000000000081526004018080602001828103825283818151815260200191508051906020019080838360005b8381101561219c578082015181840152602081019050612181565b50505050905090810190601f1680156121c95780820380516001836020036101000a031916815260200191505b509250505060405180910390fd5b506000600160008873ffffffffffffffffffffffffffffffffffffffff1673ffffffffffffffffffffffffffffffffffffffff168152602001908152602001600020600087600019166000191681526020019081526020016000206000015414156122ab576000808773ffffffffffffffffffffffffffffffffffffffff1673ffffffffffffffffffffffffffffffffffffffff1681526020019081526020016000208590806001815401808255809150509060018203906000526020600020016000909192909190915090600019169055505b6122b53085612e33565b5060606040519081016040528085815260200182815260200160001515815250600160008873ffffffffffffffffffffffffffffffffffffffff1673ffffffffffffffffffffffffffffffffffffffff16815260200190815260200160002060008760001916600019168152602001908152602001600020600082015181600001556020820151816001015560408201518160020160006101000a81548160ff02191690831515021790555090505084600019168673ffffffffffffffffffffffffffffffffffffffff167fea90ef40963535482537f0689e05cb8d259e459ebd21530e826702294d0eafdd8684604051808381526020018281526020019250505060405180910390a36001915050949350505050565b600042600160008573ffffffffffffffffffffffffffffffffffffffff1673ffffffffffffffffffffffffffffffffffffffff16815260200190815260200160002060008460001916600019168152602001908152602001600020600101541115801561249f5750600160008473ffffffffffffffffffffffffffffffffffffffff1673ffffffffffffffffffffffffffffffffffffffff1681526020019081526020016000206000836000191660001916815260200190815260200160002060020160009054906101000a900460ff16155b1561250357600160008473ffffffffffffffffffffffffffffffffffffffff1673ffffffffffffffffffffffffffffffffffffffff168152602001908152602001600020600083600019166000191681526020019081526020016000206000015490505b92915050565b600860009054906101000a900460ff1681565b6000600160008473ffffffffffffffffffffffffffffffffffffffff1673ffffffffffffffffffffffffffffffffffffffff1681526020019081526020016000206000836000191660001916815260200190815260200160002060020160009054906101000a900460ff1615156125ec57600160008473ffffffffffffffffffffffffffffffffffffffff1673ffffffffffffffffffffffffffffffffffffffff168152602001908152602001600020600083600019166000191681526020019081526020016000206000015490505b92915050565b600080600460003373ffffffffffffffffffffffffffffffffffffffff1673ffffffffffffffffffffffffffffffffffffffff16815260200190815260200160002060008573ffffffffffffffffffffffffffffffffffffffff1673ffffffffffffffffffffffffffffffffffffffff1681526020019081526020016000205490508083101515612704576000600460003373ffffffffffffffffffffffffffffffffffffffff1673ffffffffffffffffffffffffffffffffffffffff16815260200190815260200160002060008673ffffffffffffffffffffffffffffffffffffffff1673ffffffffffffffffffffffffffffffffffffffff16815260200190815260200160002081905550612798565b612717838261374590919063ffffffff16565b600460003373ffffffffffffffffffffffffffffffffffffffff1673ffffffffffffffffffffffffffffffffffffffff16815260200190815260200160002060008673ffffffffffffffffffffffffffffffffffffffff1673ffffffffffffffffffffffffffffffffffffffff168152602001908152602001600020819055505b8373ffffffffffffffffffffffffffffffffffffffff163373ffffffffffffffffffffffffffffffffffffffff167f8c5be1e5ebec7d5bd14f71427d1e84f3dd0314c0f7b2291e5b200ac8c7c3b925600460003373ffffffffffffffffffffffffffffffffffffffff1673ffffffffffffffffffffffffffffffffffffffff16815260200190815260200160002060008873ffffffffffffffffffffffffffffffffffffffff1673ffffffffffffffffffffffffffffffffffffffff168152602001908152602001600020546040518082815260200191505060405180910390a3600191505092915050565b6000600260008373ffffffffffffffffffffffffffffffffffffffff1673ffffffffffffffffffffffffffffffffffffffff168152602001908152602001600020549050919050565b6000602052816000526040600020818154811015156128e857fe5b90600052602060002001600091509150505481565b60008061290a338561251c565b116040805190810160405280601081526020017f4e6f20746f6b656e73206c6f636b6564000000000000000000000000000000008152509015156129e9576040517f08c379a00000000000000000000000000000000000000000000000000000000081526004018080602001828103825283818151815260200191508051906020019080838360005b838110156129ae578082015181840152602081019050612993565b50505050905090810190601f1680156129db5780820380516001836020036101000a031916815260200191505b509250505060405180910390fd5b506129f43083612e33565b50612a6382600160003373ffffffffffffffffffffffffffffffffffffffff1673ffffffffffffffffffffffffffffffffffffffff168152602001908152602001600020600086600019166000191681526020019081526020016000206000015461375e90919063ffffffff16565b600160003373ffffffffffffffffffffffffffffffffffffffff1673ffffffffffffffffffffffffffffffffffffffff168152602001908152602001600020600085600019166000191681526020019081526020016000206000018190555082600019163373ffffffffffffffffffffffffffffffffffffffff167fea90ef40963535482537f0689e05cb8d259e459ebd21530e826702294d0eafdd600160003373ffffffffffffffffffffffffffffffffffffffff1673ffffffffffffffffffffffffffffffffffffffff1681526020019081526020016000206000876000191660001916815260200190815260200160002060000154600160003373ffffffffffffffffffffffffffffffffffffffff1673ffffffffffffffffffffffffffffffffffffffff1681526020019081526020016000206000886000191660001916815260200190815260200160002060010154604051808381526020018281526020019250505060405180910390a36001905092915050565b600860019054906101000a900463ffffffff1681565b60078054600181600116156101000203166002900480601f016020809104026020016040519081016040528092919081815260200182805460018160011615610100020316600290048015612c895780601f10612c5e57610100808354040283529160200191612c89565b820191906000526020600020905b815481529060010190602001808311612c6c57829003601f168201915b505050505081565b60055481565b6000612ca282613404565b9050803410151515612cb357600080fd5b612cc88260035461375e90919063ffffffff16565b600381905550612d2082600260003373ffffffffffffffffffffffffffffffffffffffff1673ffffffffffffffffffffffffffffffffffffffff1681526020019081526020016000205461375e90919063ffffffff16565b600260003373ffffffffffffffffffffffffffffffffffffffff1673ffffffffffffffffffffffffffffffffffffffff16815260200190815260200160002081905550612d788160055461375e90919063ffffffff16565b60058190555080341115612dd0573373ffffffffffffffffffffffffffffffffffffffff166108fc8234039081150290604051600060405180830381858888f19350505050158015612dce573d6000803e3d6000fd5b505b7f8a9dcf4e150b1153011b29fec302d5be0c13e84fa8f56ab78587f778a32a90dd8282604051808381526020018281526020019250505060405180910390a15050565b60096020528060005260406000206000915054906101000a900460ff1681565b6000600260003373ffffffffffffffffffffffffffffffffffffffff1673ffffffffffffffffffffffffffffffffffffffff168152602001908152602001600020548211151515612e8357600080fd5b600073ffffffffffffffffffffffffffffffffffffffff168373ffffffffffffffffffffffffffffffffffffffff1614151515612ebf57600080fd5b612f1182600260003373ffffffffffffffffffffffffffffffffffffffff1673ffffffffffffffffffffffffffffffffffffffff1681526020019081526020016000205461374590919063ffffffff16565b600260003373ffffffffffffffffffffffffffffffffffffffff1673ffffffffffffffffffffffffffffffffffffffff16815260200190815260200160002081905550612fa682600260008673ffffffffffffffffffffffffffffffffffffffff1673ffffffffffffffffffffffffffffffffffffffff1681526020019081526020016000205461375e90919063ffffffff16565b600260008573ffffffffffffffffffffffffffffffffffffffff1673ffffffffffffffffffffffffffffffffffffffff168152602001908152602001600020819055508273ffffffffffffffffffffffffffffffffffffffff163373ffffffffffffffffffffffffffffffffffffffff167fddf252ad1be2c89b69c2b068fc378daa952ba7f163c4a11628f55a4df523b3ef846040518082815260200191505060405180910390a36001905092915050565b600080613065338561251c565b116040805190810160405280601081526020017f4e6f20746f6b656e73206c6f636b656400000000000000000000000000000000815250901515613144576040517f08c379a00000000000000000000000000000000000000000000000000000000081526004018080602001828103825283818151815260200191508051906020019080838360005b838110156131095780820151818401526020810190506130ee565b50505050905090810190601f1680156131365780820380516001836020036101000a031916815260200191505b509250505060405180910390fd5b506131b382600160003373ffffffffffffffffffffffffffffffffffffffff1673ffffffffffffffffffffffffffffffffffffffff168152602001908152602001600020600086600019166000191681526020019081526020016000206001015461375e90919063ffffffff16565b600160003373ffffffffffffffffffffffffffffffffffffffff1673ffffffffffffffffffffffffffffffffffffffff168152602001908152602001600020600085600019166000191681526020019081526020016000206001018190555082600019163373ffffffffffffffffffffffffffffffffffffffff167fea90ef40963535482537f0689e05cb8d259e459ebd21530e826702294d0eafdd600160003373ffffffffffffffffffffffffffffffffffffffff1673ffffffffffffffffffffffffffffffffffffffff1681526020019081526020016000206000876000191660001916815260200190815260200160002060000154600160003373ffffffffffffffffffffffffffffffffffffffff1673ffffffffffffffffffffffffffffffffffffffff1681526020019081526020016000206000886000191660001916815260200190815260200160002060010154604051808381526020018281526020019250505060405180910390a36001905092915050565b600080600090505b6000808473ffffffffffffffffffffffffffffffffffffffff1673ffffffffffffffffffffffffffffffffffffffff168152602001908152602001600020805490508110156133fe576133ef6133e0846000808773ffffffffffffffffffffffffffffffffffffffff1673ffffffffffffffffffffffffffffffffffffffff168152602001908152602001600020848154811015156133d057fe5b90600052602060002001546123cc565b8361375e90919063ffffffff16565b91508080600101915050613335565b50919050565b60006134376005546134296134248560035461375e90919063ffffffff16565b61377a565b61374590919063ffffffff16565b9050919050565b600061347161346061345b8460035461374590919063ffffffff16565b61377a565b60055461374590919063ffffffff16565b9050919050565b6001602052816000526040600020602052806000526040600020600091509150508060000154908060010154908060020160009054906101000a900460ff16905083565b600061354d82600460003373ffffffffffffffffffffffffffffffffffffffff1673ffffffffffffffffffffffffffffffffffffffff16815260200190815260200160002060008673ffffffffffffffffffffffffffffffffffffffff1673ffffffffffffffffffffffffffffffffffffffff1681526020019081526020016000205461375e90919063ffffffff16565b600460003373ffffffffffffffffffffffffffffffffffffffff1673ffffffffffffffffffffffffffffffffffffffff16815260200190815260200160002060008573ffffffffffffffffffffffffffffffffffffffff1673ffffffffffffffffffffffffffffffffffffffff168152602001908152602001600020819055508273ffffffffffffffffffffffffffffffffffffffff163373ffffffffffffffffffffffffffffffffffffffff167f8c5be1e5ebec7d5bd14f71427d1e84f3dd0314c0f7b2291e5b200ac8c7c3b925600460003373ffffffffffffffffffffffffffffffffffffffff1673ffffffffffffffffffffffffffffffffffffffff16815260200190815260200160002060008773ffffffffffffffffffffffffffffffffffffffff1673ffffffffffffffffffffffffffffffffffffffff168152602001908152602001600020546040518082815260200191505060405180910390a36001905092915050565b600b5481565b6000600460008473ffffffffffffffffffffffffffffffffffffffff1673ffffffffffffffffffffffffffffffffffffffff16815260200190815260200160002060008373ffffffffffffffffffffffffffffffffffffffff1673ffffffffffffffffffffffffffffffffffffffff16815260200190815260200160002054905092915050565b600082821115151561375357fe5b818303905092915050565b6000818301905082811015151561377157fe5b80905092915050565b6000806001600860009054906101000a900460ff160160ff16905061380f600860009054906101000a900460ff1660ff16600860059054906101000a900460ff1660ff1602600a0a613801600860019054906101000a900463ffffffff1663ffffffff166137f38586890a61381790919063ffffffff16565b61381790919063ffffffff16565b61381790919063ffffffff16565b915050919050565b6000818381151561382457fe5b04905092915050565b828054600181600116156101000203166002900490600052602060002090601f016020900481019282601f1061386e57805160ff191683800117855561389c565b8280016001018555821561389c579182015b8281111561389b578251825591602001919060010190613880565b5b5090506138a991906138ad565b5090565b6138cf91905b808211156138cb5760008160009055506001016138b3565b5090565b905600a165627a7a72305820d09b78785fc1e809fa1d4729aaa494a45bbf28cf73e587b277041fc53f6dc9460029",
  "source": "pragma solidity ^0.4.11;\n\nimport \"./EthPolynomialCurvedToken.sol\";\nimport \"./LockableToken.sol\";\n\n\n//Not sure why it needs to be both EthPolynomialCurvedToken and LockableToken, since EthPolynomialCurvedToken is already LockableToken\ncontract Voting is EthPolynomialCurvedToken, LockableToken {\n\n    //model proposal\n    struct Proposal {\n        uint id;\n        string text;\n        uint voteCount;\n    }\n    //store accounts that have voted\n    mapping(address=>bool) public voters;\n\n    // store proposal\n    //fetch proposal\n    mapping(uint => Proposal) public proposals;\n\n    //store proposals count\n    uint public proposalCount;\n\n    //voted event\n    event votedEvent (\n        uint indexed _candidateId\n    );\n\n    function addProposal (string _text) public {\n        proposalCount ++;\n        proposals[proposalCount] = Proposal(proposalCount, _text, 0);\n    }\n\n    function vote (uint _proposalId) public {\n        //could also be variable token amount \n        //function vote (uint _proposalId, uint _token) public {\n        // record that account has voted\n        voters[msg.sender] = true;\n\n        //check that voter has enough approved token \n\n        // require valid proposalId\n\n        //lock tokens till end of poll\n        //update the voteCount for a proposal\n        proposals[_proposalId].voteCount = proposals[_proposalId].voteCount + balanceOf(msg.sender);\n\n        //lock token for the duration of the poll\n        // to do: create data structure for poll and calculate time in seconds remaining till end of poll \n        // to do: reason should include pollID AND proposalId - since otherwise you cant vote lateron with newly purchased tokens on another proposal\n        lock(0x123456, balanceOf(msg.sender), 100);\n        \n\n        // trigger voted event\n        emit votedEvent(_proposalId);\n    }\n\n}",
  "sourcePath": "/Users/Achill/Projects/truffle/arena/contracts/Voting.sol",
  "compiler": {
    "name": "solc",
    "version": "0.4.24+commit.e67f0147.Emscripten.clang"
  },
  "schemaVersion": "2.0.1",
  "updatedAt": "2018-10-03T13:02:46.591Z"
}